:100000000C9434000C943E000C943E000C943E0082
:100010000C943E000C943E000C943E000C943E0068
:100020000C943E000C943E000C943E000C943E0058
:100030000C943E000C943E000C943E000C943E0048
:100040000C943E000C943E000C943E000C943E0038
:100050000C943E000C943E000C943E000C943E0028
:100060000C943E000C943E0011241FBECFEFD8E04C
:10007000DEBFCDBF0E94CE000C94D7000C940000D0
:10008000362F462F572FBC0184B18F6084B915B825
:100090002B9A8AB18FEF8AB93BB92FEF83ED90E3AA
:1000A000215080409040E1F700C00000299ABB2712
:1000B000A72F962F852F8BB92FEF83ED90E321503B
:1000C00080409040E1F700C0000085B1887F85B98D
:1000D0002A9ACB01AA27BB278BB92FEF83ED90E398
:1000E000215080409040E1F700C00000299A472F3E
:1000F0005527662777274BB92FEF8DE399E42150D9
:1001000080409040E1F700C000000895CF93DF9356
:1001100000D000D0CDB7DEB784B18F6084B98AB18A
:100120001AB8289A89B12FEF83ED90E321508040CF
:100130009040E1F700C0000085B1836085B989B1C6
:100140002FEF83ED90E3215080409040E1F700C015
:10015000000085B1856085B989B12FEF83ED90E30B
:10016000215080409040E1F700C0000085B18760D9
:1001700085B989B12FEF8DE399E4215080409040FB
:10018000E1F700C0000069817A818B819C810F902A
:100190000F900F900F90DF91CF9108956FEF7BE656
:1001A0008AEC98E00E94400090E080E00895F89486
:0201B000FFCF7F
:00000001FF
